:020000040800F2
:1000000068160020312300085D0300085F03000824
:10001000890400088D040008910400080000000015
:10002000000000000000000000000000950400082F
:100030009704000800000000990400089B040008D1
:100040004B2300084B2300084B2300084B230008D8
:100050004B2300084B2300084B2300084B230008C8
:100060004B2300084B2300084B2300084B230008B8
:100070004B2300084B2300084B2300084B230008A8
:100080004B2300084B2300084B2300084B23000898
:100090004B2300084B2300084B2300084B23000888
:1000A0004B2300084B2300084B2300084B23000878
:1000B0004B2300081D0900084B2300084B230008B0
:1000C0004B2300084B2300084B2300084B23000858
:1000D0004B230008531000084B2300084722000858
:1000E0004B2300084B2300084B2300084B23000838
:1000F0004B2300084B2300084B2300084B23000828
:100100004B2300084B2300084B2300084B23000817
:100110004B2300084B2300084B2300084B23000807
:100120004B2300084B2300084B2300084B230008F7
:1001300000F002F800F03FF80AA090E8000C8244BA
:100140008344AAF10107DA4501D100F034F8AFF297
:10015000090EBAE80F0013F0010F18BFFB1A43F0A5
:10016000010318475423010074230100103A24BFEF
:1001700078C878C1FAD8520724BF30C830C144BF0C
:1001800004680C607047000000230024002500264E
:10019000103A28BF78C1FBD8520728BF30C148BFEA
:1001A0000B607047782904F0C587002070471FB5A1
:1001B0001FBD10B510BD05F087F81146FFF7F7FF1A
:1001C00000F051F805F0A5F803B4FFF7F2FF03BC07
:1001D00000F0E4FE70B505460C460BE000BF402180
:1001E000284603F085F80028F9D02178284603F046
:1001F00011F8641C20780028F0D170BD2DE9F04181
:1002000007460D461646002405E029193846FFF733
:10021000E1FF601CC4B2B442F7DB00BF40213846A6
:1002200003F066F80028F9D0BDE8F08170B5064605
:100230000C4600254021304603F067F80FE0615D71
:10024000304602F0E7FF00BF4021304603F050F88F
:100250000028F9D04021304603F057F86D1C605D4E
:100260000028ECD170BD00BF002400F02DFE4FF43B
:10027000A06002F07DF84FF4E13000F09EFE4FF4F4
:10028000E13001F083FF00F0D5FA00F0A9FA00F0A8
:1002900025FF0021084601F057F82A4801F088F8A8
:1002A0002948006840F001002749086008460068B6
:1002B00040F00800086000BF2348006800F0080014
:1002C0000028F9D101F02FFF2EE02048006858B334
:1002D0001F480068C0431E4908600846006801289E
:1002E00010D14FF4167409E022460021084601F0AF
:1002F000B9F8032000F025FE601D84B2B4F5FA6F52
:10030000F2DB10E04FF4FA6409E0224600210846CF
:1003100001F0A8F8032000F014FE601F84B2B4F5C9
:10032000167FF2DC00BF00BFCFE70A490A780978E0
:10033000491C084B1970084921F8120000211A467F
:10034000117070470000A5430824014018000020E8
:100350001C00002002000020CC020020704788B062
:100360004E49009808604E49019808604D4902982E
:1003700008604D49039808604C49049808604C494E
:10038000059808604B49069808604B490798086033
:100390004A4800684A4908604848001D00784949B1
:1003A00008704648401D0078474908704348801D42
:1003B0000088464908804148083000684449086080
:1003C0003E480C300068434908603C4810300068E3
:1003D000414908603948143000684049086040A02D
:1003E00004F068FE2D48016849A004F063FE2C4823
:1003F00001684AA004F05EFE2A4801684AA004F0A1
:1004000059FE294801684BA004F054FE27480168B2
:100410004BA004F04FFE264801684CA004F04AFEB1
:100420002448016855A004F045FE234801685BA0FC
:1004300004F040FE214801685BA004F03BFE1F4829
:10044000143001685BA004F035FE1C48001D0168F3
:100450005BA004F02FFE1948083001685BA004F08F
:1004600029FE16480C3001685BA004F023FE1348F7
:10047000183001685BA004F01DFE104801685CA004
:1004800004F018FE00BFFEE700BFFEE700BFFEE776
:1004900000BFFEE77047704770477047200000209C
:1004A00024000020280000202C0000203000002024
:1004B00034000020380000203C00002024ED00E043
:1004C000400000204400002045000020460000209D
:1004D000480000204C000020500000205400002064
:1004E0000A0A5B48617264206661756C74206861F9
:1004F0006E646C6572202D20616C6C206E756D626F
:1005000065727320696E206865785D0A0A000000D4
:100510005230203D2025780A000000005231203D55
:100520002025780A000000005232203D2025780A5C
:10053000000000005233203D2025780A0000000012
:10054000523132203D2025780A0000004C525B5287
:1005500031345D203D20257820737562726F75748B
:10056000696E652063616C6C2072657475726E20B3
:10057000616464726573730A0000000050435B524B
:1005800031355D203D2025782070726F6772616D76
:1005900020636F756E7465720A000000505352201C
:1005A0003D2025780A0000005348435352203D2047
:1005B00025780A0042464152203D2025780A000055
:1005C00043465352203D2025780A000048465352A6
:1005D000203D2025780A000044465352203D202526
:1005E000780A000041465352203D2025780A000039
:1005F0005343425F5348435352203D2025780A001D
:100600000CB50020019000906C48006840F48030E8
:100610006A49086000BF6948006800F40030009033
:100620000198401C0190009818B90198B0F5A06F8E
:10063000F1D16248006800F4003010B10120009050
:1006400001E0002000900098012843D15C48006838
:1006500040F010005A4908600846006820F0030086
:1006600008600846006840F002000860534840688F
:10067000524948600846406848600846406840F46F
:10068000806048600846406820F47C104860084656
:10069000406840F4E81048600846006840F0807008
:1006A000086000BF4548006800F000700028F9D0DD
:1006B0004248406820F003004049486008464068CE
:1006C00040F00200486000BF3C48406800F00C0069
:1006D0000828F9D10CBD10B5FFF792FF10BD10B579
:1006E0003648006840F00100344908600846406818
:1006F000344908403149486008460068324908409A
:100700002E4908600846006820F4802008600846EA
:10071000406820F4FE0048604FF41F008860FFF737
:10072000DAFF4FF000602949086010BD10B50021C4
:1007300000200022214B5B6803F00C0121B1042949
:1007400006D0082928D107E0214B224C236027E05E
:100750001F4B204C236023E0184B5B6803F47010A0
:10076000164B5B6803F48032022303EB904022B9FE
:10077000194B4343174C23600DE0104B5B6803F4A7
:10078000003323B1144B4343124C236003E0104B5E
:100790004343104C236003E00D4B0E4C236000BF1D
:1007A00000BF064B5B68C3F303130C4CE15C094BC1
:1007B0001B68CB40074C236010BD000000100240B6
:1007C000002002400000FFF8FFFFF6FE08ED00E009
:1007D00000127A005800002000093D005C00002053
:1007E00008B50121042002F075FB8020ADF800005F
:1007F00028208DF8030069460D4802F0AFF808BDC7
:1008000010B5002480210A4802F03BF901280BD1E1
:100810000A2000F096FB8021054802F032F90128F9
:1008200003D14FF07E5400E00024204610BD0000AC
:100830000008014000B587B001214FF4017002F0BB
:1008400049FB4FF4004002F0A9FA0620ADF804007D
:1008500000208DF8070001A92E4802F07FF82E48ED
:1008600001F0F4FD002002908DF80C008DF80D00D1
:100870004FF4602004900020059001208DF81800AE
:1008800002A9254801F009FE0121234801F031FEAB
:10089000214801F050FE00BF1F4801F051FE002822
:1008A000FAD11D4801F056FE00BF1B4801F057FE6B
:1008B0000028FAD107B000BD10B504460723012275
:1008C0002146154801F081FE0121134801F051FE37
:1008D00000BF0221104801F0BDFF0028F9D00E48EA
:1008E00001F0DAFE10BD2DE9F04107460C46002567
:1008F000002608E03846FFF7DFFF0544052000F03A
:1009000020FB701CC6B2A642F4DBB5FBF4F080B24B
:10091000BDE8F08100080140002401402DE9F047C6
:100920004FF0000900240121D44803F034FC0028D2
:100930007ED0D3480068401CD1490860D148007877
:10094000401CD0490870D0480078401CCE4908703F
:10095000CE480078401CCD490870CA48007801286C
:100960003AD10020C74908700120FFF7A5FFC84908
:1009700008800220FFF7A0FFC6490880C44800880D
:1009800005F0B8FF07460022C34B06F003F8054602
:1009900005F06CFFBE490880BE48008805F0AAFF3C
:1009A00007460022BC4B05F0F5FF054605F05EFF4B
:1009B000B8490880B9480088B54909880844B7494A
:1009C0000880B7480088B34909880844B4490880BA
:1009D000AF480088B3490880AB480078012856D159
:1009E0000020A9490870AA48008805F083FF07463F
:1009F0000022AD4B05F0B2FD054605F025FCAB49E4
:100A0000A24A127841F82200A248008805F072FF3D
:100A100007460022A44B05F0A1FD054605F014FC95
:100A2000A3499A4A127841F82200FFF7E9FE00E054
:100A300021E1054606F04EFC9E4908600846006824
:100A400006F064FC9C49914A127841F822009B48C8
:100A50000068401C9949086090480088052190FB77
:100A6000F1F0974908808E480088052190FBF1F04D
:100A70009449088000208949088089490880844871
:100A800000889149088083480088904908807F4801
:100A9000007840287ED100207C49087000218C48D5
:100AA00001F027FD844800F0FAFE8A4908607F487B
:100AB00000F048FE884908607C4800F043FE874902
:100AC000086000240EE08448006850F8240084493F
:100AD00041F824008148006850F82400814941F819
:100AE0002400641C402CEEDB7D4800F053FE7E4960
:100AF00008607B4800F099FE7B494860784800F028
:100B0000EBFE79498860764800F0F6FE7649C860C9
:100B1000664800F0C0FF74490861644801F06BF852
:100B200071494861614801F0A0F86F4988615F48E8
:100B300001F0C4F86C49C8616C495C4801F0F7F8F1
:100B400069490862594801F017F967494862684ADB
:100B50006649564801F03AF963498862534801F002
:100B60007BF96149C862514801F098F95E49086310
:100B70005E494E4801F0D6F95B4948634B4801F0A5
:100B800038FA59498863564800F02DFF5649C86322
:100B9000544800E06BE000F0FDFD53490864514803
:100BA00000F043FE504948644E4800F095FE4E491F
:100BB00088644C4800F0A0FE4B49C8643C4800F0F3
:100BC0006AFF494908653A4801F015F84649486501
:100BD000374801F04AF844498865354801F06EF815
:100BE0004149C8654149324801F0A1F83E490866CB
:100BF0002F4801F0C1F83C4948663D4A3B492C4822
:100C000001F0E4F838498866294801F025F93649A9
:100C1000C866274801F042F9334908673349244838
:100C200001F080F930494867214801F0E2F92E4986
:100C300088672C4800F0D7FE2B49C867012124485B
:100C400001F057FC284800F0B0F82A49486048688D
:100C500006F0B0F90546284A284B05F099FF03D263
:100C600001202749086002E0002025490860012191
:100C7000024803F0A1FABDE8F0870000000400403C
:100C8000100000209C0000209D0000209E000020FD
:100C9000040000200A00002000C8E93F6C0000208A
:100CA000720000201400002000408F40C00400208B
:100CB000C00500200C000020C006002078000020A5
:100CC0006E000020740000207000002076000020DC
:100CD0000024014098000020880000208C000020A3
:100CE0004008002040090020C007002000001643F3
:100CF0000000204190000020EC51B81E85EBB13F70
:100D00001800002070472DE9FC5F82468AF0004BF6
:100D1000584606F04FF9064604F08CFB04460022C4
:100D2000604B05F0C3FA804642460B4600205D4901
:100D300005F014FCCDE9000105F086FABDE8FC9F42
:100D400010B504460021204606F0F8FB01D22046EB
:100D500010BD0020FCE72DE9FC5F824689464FF07C
:100D6000000B002412E05AF8240006F023F907468D
:100D700004F060FB054605F067FA4DF824005DF8C5
:100D80002410584606F042F98346641C022CEADB24
:100D90005DF82900594606F0A7F9434941F82900B2
:100DA000084650F82900BDE8FC9F2DE9F0410646B1
:100DB000002430E000203D4941F82400002513E0E4
:100DC0003B4A02EB052252F8241056F8250006F0A3
:100DD000E9FA0746354850F82410384606F016F967
:100DE000324941F824006D1C32480068A842E7DC13
:100DF000314A52F824102D4A52F8240006F006F920
:100E00002A4941F8240051F82400FFF77CFF2749C4
:100E100041F82400641C27484068A042CADC002432
:100E20002AE00020254941F82400002514E0244A46
:100E300002EBC50252F824101C4A52F8250006F0B5
:100E4000B1FA07461D4850F82410384606F0DEF87F
:100E50001A4941F824006D1C16488068A842E6DC57
:100E6000184A52F82410154A52F8240006F0CEF819
:100E7000124941F82400641C0E48C068A042D0DC2E
:100E8000002407E021460D48FFF765FF0B4941F8B4
:100E90002400641C0748C068A042F3DC074840688F
:100EA000BDE8F0810000F03FA0000020400B0020D2
:100EB0009C7800088C7800089C9A0008A800002004
:100EC0009C9800089C9B000810B56FF0040001F08E
:100ED0009EFA2E4800682E49B0FBF1F02D490870AB
:100EE0000846007800EB4001C1EBC0104FF6FF71DF
:100EF00001EAC0002849088010BD0146254A127841
:100F00004A434FF0E0235A6100229A611A4612695F
:100F100042F001021A6100BF4FF0E022106900F0B8
:100F200001021AB100F48032002AF5D04FF0E0221D
:100F3000126922F001024FF0E0231A6100229A6147
:100F400070470146144A12884A434FF0E0235A6121
:100F500000229A611A46126942F001021A6100BF2A
:100F60004FF0E022106900F001021AB100F4803263
:100F7000002AF5D04FF0E022126922F001024FF072
:100F8000E0231A6100229A61704700005800002097
:100F900000127A00B0000020B2000020014600BF1D
:100FA000704700BF494A128802F04002002AF9D077
:100FB000C2B2464B1B1D1A80704710B586B004465E
:100FC000012144F2040001F085FF4FF40070ADF8F8
:100FD000140003208DF8160018208DF8170005A9BD
:100FE0003B4801F0BBFC4FF48060ADF814000420D6
:100FF0008DF8170005A9364801F0B0FC25208DF8C2
:10100000000003208DF801008DF8020001208DF80A
:101010000300684601F0B1F901940020ADF8080022
:10102000ADF80A00ADF80C00ADF810000C20ADF8DA
:101030000E0001A9254801F0F4FF012240F22551DC
:10104000224802F086F80121204802F076F806B026
:1010500010BD10B540F225511C4802F05FF910B3E5
:101060001A4802F0DBF8C4B21A48008800F40040C5
:10107000C8B91848008800F4804060B10A2C03D039
:1010800000201449088020E01248008840F4004005
:101090001049088019E00D2C06D10E48008840F454
:1010A00080400C49088010E00A480088C0F30D0019
:1010B00009490C5407480088401C06490880084626
:1010C0000088C72801DD0020088010BD00380140DD
:1010D00000080140B8000020400C002008B50121A4
:1010E000082001F0F7FEC020ADF8000010208DF8B8
:1010F000030003208DF802006946904801F02EFCA1
:10110000C0218E4801F0D7FC08BD10B58B4800689F
:1011100020F07040894908600846006840F040505F
:1011200008600120864908608649C1F898010420BA
:10113000FFF7E3FE0020824908600420FFF7DDFE90
:1011400000208049C1F8980110BD10B57B480068A7
:1011500020F07040794908600846006840F040502F
:10116000086000207649091F08607649C1F89C0193
:101170000420FFF7C2FE01207149091F0860714970
:10118000C1F89C010420FFF7B8FE10BD10B5002483
:101190006A48006820F070406849086008460068A6
:1011A00040F000400860012065490860FFF7A5FE97
:1011B00001206449C1F89801FFF79FFE07E0601C19
:1011C000C4B2FA2C03DDFFF7C0FF012010BD5C485C
:1011D000803800680028F2D15949091F086000BF13
:1011E000F4E710B500205649091F0860534800680D
:1011F00020F07040514908600846006840F04050B7
:10120000086000204F49C1F89C010220FFF775FEDD
:1012100001204B49091F08600220FFF76EFE0020E5
:101220004849C1F8980110BD10B500204449091F74
:1012300008604248006820F0704040490860084655
:10124000006840F04050086001203E49C1F89C0110
:101250000220FFF752FE01203949091F08600220D1
:10126000FFF74BFE00203749C1F8980110BD70B55B
:1012700004463248006820F0704030490860084653
:10128000006840F04050086000202D49091F0860A8
:1012900000251DE0E00918B101202949086002E09D
:1012A0000020274908606006040E0220FFF725FE93
:1012B00001202349091F08600220FFF71EFE0020BD
:1012C0002049C1F898010220FFF717FE681CC5B23B
:1012D000082DDFDB70BD70B5054600241748006897
:1012E00020F07040154908600846006840F0004052
:1012F0000860002617E000201149091F086002203D
:10130000FFF7FBFD01200F49C1F898016006040EAC
:101310000B488038006808B1601CC4B20120FFF798
:10132000ECFD701CC6B2082EE5DB15B9FFF77CFF9B
:1013300001E0FFF756FF204670BD0000000C0140A1
:101340009C8121420080214270B505460C46FFF782
:10135000DCFE8020FFF78BFFFFF718FF2846FFF722
:1013600086FFFFF713FF2046FFF781FFFFF70EFF11
:10137000FFF7EBFE70BD70B50446FFF7C6FE802098
:10138000FFF775FFFFF702FF2046FFF770FFFFF73B
:10139000FDFEFFF7BAFE8120FFF769FFFFF7F6FEBB
:1013A0000020FFF798FF0546FFF7CFFE284670BDE7
:1013B0002DE9FC5F8346584605F0FCFD8046D54A82
:1013C000D54B05F0E7FA064604F03EFF83460024BD
:1013D000D24D0022D24B2046294605F0BFF80446E4
:1013E0000D46584605F0E6FD064632460B462046B9
:1013F000294605F0B3F804460D460022C94B2046A5
:10140000294605F0EDFC04460D460022C64B204659
:10141000294604F04BFF064604F04EF9804605F0DD
:1014200025FAC0B201900020FFF7A5FF82460AF01E
:101430007F0040F01000009000200099FFF784FF2B
:10144000FE200199FFF780FF51460020FFF77CFF47
:101450000220FFF776FD4AF0A1010020FFF774FF9C
:10146000BDE8FC9F70B504460D461646E9B2A200E1
:10147000921DD0B2FFF768FFA100C91DC8B2C5F325
:101480000721FFF761FFF1B2A2000832D0B2FFF7E7
:101490005BFFA1000931C8B2C6F30721FFF754FF73
:1014A00070BD2DE9F84F83468A4600200090FFF773
:1014B00015FE00210846FFF747FF5846FFF778FF63
:1014C000504605F017FA80464FF03332974B05F03F
:1014D00061FA06460022964B04F0E8FE044605F049
:1014E000C5F9009000210846009AFFF7BBFF0021D4
:1014F0000120009AFFF7B6FF00210220009AFFF7B3
:10150000B1FF00210320009AFFF7ACFF0021042067
:10151000009AFFF7A7FF00210520009AFFF7A2FF1E
:1015200000210620009AFFF79DFF00210720009A66
:10153000FFF798FF00210820009AFFF793FF002192
:101540000920009AFFF78EFF00210A20009AFFF77A
:1015500089FF00210B20009AFFF784FF00210C2057
:10156000009AFFF77FFF00210D20009AFFF77AFF16
:1015700000210E20009AFFF775FF00210F20009A2E
:10158000FFF770FF4FF4FA70FFF7DBFCBDE8F88F50
:101590002DE9FF4F85B00D4614469946DDF848A069
:1015A00000200490B9F1000F06D0B9F1010F1CD052
:1015B000B9F1020F18D156E0204605F09BF95D4ABB
:1015C0005D4BCDE9000105F0E5F900225B4BCDE96B
:1015D000020104F06BFE074605F048F90490002173
:1015E000DDE90420FFF73EFF8FE0204605F082F999
:1015F000504A514BCDE9000105F0CCF907460022D5
:101600004E4B04F053FECDE9020105F02FF9049092
:101610000021DDE90420FFF725FFAC4211DD601B4E
:1016200005F051F90746434A454B05F0B3F9CDE9BA
:10163000020105F01BF91FFA80FB5846FFF781FCF9
:1016400010E0281B05F03FF907463A4A3C4B05F0ED
:10165000A1F9CDE9020105F009F91FFA80FB58460E
:10166000FFF76FFC51E0AC4226DD2E4621E030460C
:1016700005F040F907462F4A2F4B05F08BF9002261
:101680002E4BCDE9000104F011FECDE9020105F079
:10169000EDF804900021DDE90420FFF7E3FE0220CD
:1016A000FFF74FFCFA210AFB01F0FFF726FC701C44
:1016B000C6B2A642DBDD27E0A54225DD2E4621E0AD
:1016C000304605F017F907461A4A1B4B05F062F938
:1016D00000221A4BCDE9000104F0E8FDCDE902013A
:1016E00005F0C4F804900021DDE90420FFF7BAFEFC
:1016F0000220FFF726FCFA210AFB01F0FFF7FDFBB1
:10170000701EC6B2A642DBDA00BF00BF09B0BDE85A
:10171000F08F0000713D0AD7A370ED3F84D7774169
:101720000000B0400000F03F0000E03F33330340D2
:10173000002062409A9999999999014000C06340AC
:101740009999054030B585B00546002404E0002095
:10175000FE4941F82400641C402CF8DB002405E01D
:1017600055F82400FA4941F82400641C402CF7DBAA
:10177000012300224021684603F056FBF4496846E5
:1017800003F033FB4022F149F14802F019FDEF4824
:1017900005B030BD2DE9F04FC1B08146002040902A
:1017A00082468346002411E059F8240005F002FC2B
:1017B00021F00041074600224FF0804304F02CF84E
:1017C000054604F041FD4DF82400641C402CEBDB81
:1017D00000240DE0A00105F099FD06465DF82410F7
:1017E00005F0E0FD0546514605F010FC8246641CFC
:1017F000402CEFDB002406E05DF82410584605F08D
:1018000005FC8346641C402CF6DB0021584605F09D
:101810002DFD01D14FF07E5B5946504605F064FC2A
:101820004090409841B0BDE8F08F2DE9F04FC1B035
:1018300081464FF0000AD346002412E059F82400F4
:1018400005F0B8FB21F00041074600224FF080432D
:1018500003F0E2FF054604F0F7FC01A941F824007B
:10186000641C402CEADB002407E001A850F8241097
:10187000584605F0CBFB8346641C402CF5DB5846EC
:1018800005F098FB07460022B24B05F083F80546A9
:1018900004F0DAFC8246504641B0BDE8F08F2DE9F5
:1018A000F0410546002600240CE0304605F02EFDF0
:1018B000804655F8241005F0A9FB074605F00AFDFF
:1018C0000646641C402CF0DB032E01DB012600E001
:1018D00000263046BDE8F08170B50546002600249C
:1018E00006E055F82410304605F090FB0646641CCF
:1018F000402CF6DB304670BD2DE9F04705464FF031
:1019000000080026002700240DE0A00105F0FEFCE1
:10191000824655F8241005F045FD8146314605F014
:1019200075FB0646641C402CEFDB002406E055F8EE
:101930002410384605F06AFB0746641C402CF6DB91
:101940000021384605F092FC01D14FF07E57394610
:10195000304605F0C9FB80464046BDE8F0872DE9DA
:10196000F05F0446D4F800A04FF0000913E05046A1
:1019700005F020FB05460E4654F8290005F01AFB39
:1019800007462A46334603F005FF834605F0BEFCB2
:10199000824609F10109B9F1400FE8DB5046BDE884
:1019A000F09F2DE9F05F0446D4F800A04FF0000945
:1019B00013E0504605F0FEFA05460E4654F829009D
:1019C00005F0F8FA07462A46334603F004FF83463B
:1019D00005F09CFC824609F10109B9F1400FE8DBF2
:1019E0005046BDE8F09F2DE9F041C0B00646002406
:1019F00004E056F824004DF82400641C402CF8DB69
:101A00006846FFF7ACFF05466846FFF7CAFF074682
:101A10000021284605F02AFC01D14FF07E552946C9
:101A2000384605F061FB8046404640B0BDE8F08195
:101A30002DE9F35F8B464FF0400B584604F043FF0F
:101A400080460022444B04F0A5FF04460D46009852
:101A500004F039FF064622462B4605F099F815D2C8
:101A6000584604F030FF044600223C4B04F092FF3D
:101A700006460F46009804F026FF804632463B4655
:101A800004F04CFF02D24FF07E5A01E04FF07C5A36
:101A90005046BDE8FC9F2DE9F04F87B083460020FB
:101AA0000690824624E0069805F084FA06460F4622
:101AB00040215046FFF7BCFF019005F07BFACDE9CD
:101AC00002015BF82A0005F075FA21F0004180461A
:101AD000DDE9022304F05EFF32463B46CDE9040116
:101AE00004F0E4FB044604F0AFFB06900AF1010A9F
:101AF000BAF1400FD7DB4FF08541069805F0F4FAB4
:101B00000690069807B0BDE8F08F2DE9FC478146A6
:101B10000C464024204604F0D6FE00220E4BCDE9B0
:101B2000000104F037FF05460E46484604F0CBFEA0
:101B300007462A46334605F02BF820D8204604F005
:101B4000C2FE07460022054B0AE00000080E0020F6
:101B5000080D00200000E03F0000D03F0000E83FFB
:101B600004F018FFCDE90001484604F0ACFE05463C
:101B7000DDE9002304F0D2FE01D84FF07E5A204662
:101B800004F0A1FE0022FE4BCDE9000104F002FFAB
:101B900005460E46484604F096FE07462A4633465A
:101BA00004F0BCFE07D24FEA890090FBF4F528460A
:101BB00005F0ACFB8246204604F085FE0546002277
:101BC000F04B04F0E7FE07468846484604F07BFEEB
:101BD0003A464346CDE9000104F0DAFF08D2A9EB0A
:101BE0000400800090FBF4F5284605F08FFB824648
:101BF0005046BDE8FC872DE9F04F87B083460020B2
:101C00000690824624E0069805F0D4F906460F4671
:101C100040215046FFF779FF019005F0CBF9CDE95F
:101C200002015BF82A0005F0C5F921F00041804669
:101C3000DDE9022304F0AEFE32463B46CDE9040165
:101C400004F034FB044604F0FFFA06900AF1010A9E
:101C5000BAF1400FD7DB4FF08541069805F044FA02
:101C60000690069807B0BDE8F08F2DE9F84F83463F
:101C700000200090824615E0009805F09BF904468C
:101C80000D465BF82A0005F095F921F00041064663
:101C900022462B4604F00AFB804604F0D5FA009059
:101CA0000AF1010ABAF1400FE6DB4FF085410098D6
:101CB00005F01AFA00900098BDE8F88F2DE9FE4F64
:101CC00083460020029082461CE0029805F072F9DB
:101CD00004460D465BF82A0005F06CF900224FF02F
:101CE0008043CDE9000103F097FD21F00041064655
:101CF00022462B4604F0DAFA804604F0A5FA029058
:101D00000AF1010ABAF1400FDFDB0298BDE8FE8F4D
:101D100070B504460D4600262946204605F00EFC07
:101D200002D24FF07E5600E00026304670BD2DE90D
:101D3000F84F054689460026002418E0621C55F835
:101D4000221055F8240005F0B3FC009005F032F99C
:101D500021F00041074604F077FA83464946FFF731
:101D6000D7FF8246314605F051F90646641C3F2CE8
:101D7000E4DB3046BDE8F88F2DE9FC5F83460020A8
:101D8000019082461CE0019805F014F904460D46C6
:101D90000AF101025BF822105BF82A0005F088FCCA
:101DA000009005F007F921F00041064622462B4637
:101DB00004F07CFA804604F047FA01900AF1010A27
:101DC000BAF13F0FDFDB0198BDE8FC9F2DE9FC5F16
:101DD00081468B46924600200190002437E059F856
:101DE0002400594605F0AAFB06D2611C59F82100CF
:101DF000594605F0A3FA0CD359F82400594605F0CA
:101E00009DFA23D2611C59F82100594605F096FB32
:101E10001CD2504605F0CEF805460E46621C59F815
:101E2000221059F8240005F043FC009005F0C2F898
:101E300021F0004107462A46334604F0A9FE05D8A2
:101E40004FF07E51019805F0E1F80190641C3F2CA1
:101E5000C5DB0198BDE8FC9F2DE9F84F83460020C3
:101E60000090824614E05BF82A0005F0A3F821F008
:101E700000450446009805F09DF8064622462B468C
:101E800004F014FA804604F0DFF900900AF1010A28
:101E9000BAF1400FE7DB0098BDE8F88F2DE9F04F6D
:101EA00087B081464FF0000BDA46002406E059F86F
:101EB0002410504605F0AAF88246641C402CF6DB3C
:101EC0004FF08541504605F00FF9824600241DE091
:101ED00059F82400514605F0EBFB019005F06AF833
:101EE000074600224FF0804303F096FCCDE9040141
:101EF000584605F05FF8CDE90201DDE9042304F05E
:101F0000D5F9054604F0A0F98346641C402CDFDBBC
:101F10004FF08541584605F0E7F88346584607B02C
:101F2000BDE8F08F2DE9F84F81468A464FF0000B4F
:101F3000012459E0621C59F8221059F8240005F0D8
:101F4000FDFA07D2621E59F8221059F8240005F054
:101F5000F5FA0FD3621C59F8221059F8240005F045
:101F6000EDF940D2621E59F8221059F8240005F00C
:101F7000E5F938D2504605F01DF805460E4603E057
:101F80000000D03F0000E83F621C59F8221059F8C9
:101F9000240005F08DFB009005F00CF821F00041C5
:101FA00007462A46334604F0F3FD16D9504605F09D
:101FB00001F805460E46621E59F8221059F8240011
:101FC00005F076FB009004F0F5FF21F00041074694
:101FD0002A46334604F0DCFD05D84FF07E515846C2
:101FE00005F014F88346641C3F2CA3DB5846BDE87B
:101FF000F88F2DE9FE4F83460020029082461AE0BA
:10200000029804F0D7FF04460D465BF82A0004F05E
:10201000D1FF064600224FF0804303F0FDFB22462D
:102020002B46CDE9000104F041F9804604F00CF99B
:1020300002900AF1010ABAF1400FE1DB029804F0C4
:10204000B9FF804604F0C4F806460022044B04F0B1
:1020500085FA044604F0F8F802900298BDE8FE8F75
:102060000000504000B589B00121042000F032FF8B
:102070000F20ADF8040003208DF8060018208DF81D
:10208000070001A93F4800F069FC0121084600F063
:102090002EFF40F2E730ADF81C000820ADF8180024
:1020A0000020ADF81E00ADF81A0006A94FF08040E0
:1020B00001F04CFA6020ADF808000120ADF80A00EC
:1020C0000020ADF80E00ADF8100002A94FF08040DE
:1020D00001F079FA0821C80601F0C4FE02A94FF008
:1020E000804001F0B2FA0821C80601F0C4FE02A93E
:1020F0004FF0804001F0F6FA0821C80601F0C8FE52
:1021000002A94FF0804001F038FB0821C80601F019
:10211000C8FE0121880701F075FE0121880701F042
:1021200071FD09B000BD1FB50121022000F0DFFEE6
:102130001D208DF8000001208DF8010003208DF88E
:10214000020001208DF80300684600F016F96320B4
:10215000ADF8080040F2CF20ADF804000020ADF843
:102160000A00ADF8060001A9074801F0EFF90122C5
:102170001146054801F061FD0121034801F042FDCF
:102180001FBD0000000801400004004010B586B0EB
:1021900004460121880400F0AAFE0121082000F075
:1021A00099FE5D4800F0FAFE4FF48060ADF814002F
:1021B00018208DF8170003208DF8160005A9574840
:1021C00000F0CCFB4FF40060ADF8140004208DF853
:1021D000170005A9514800F0C1FB01940020ADF89B
:1021E0000800ADF80A00ADF80C00ADF810000C20A6
:1021F000ADF80E0001A9484800F013FF002240F29C
:102200002771454800F0A5FF012240F225514248C0
:1022100000F09FFF4021404801F077F801213E483F
:1022200000F08BFF27208DF8000001208DF80100C1
:1022300006208DF8020001208DF80300684600F0AA
:102240009CF806B010BD10B540F22771324801F07D
:1022500065F8E0B1324802780078401C304B1870C5
:102260003048815C2C4800F0D5FF40F227712A48A5
:1022700001F07EF82A4800782B490978884217D166
:10228000002240F22771244800F063FF10E040F282
:102290002551214801F042F850B11F49091D098814
:1022A000C8B2FEF742F840F225511B4801F060F831
:1022B0001E480068401C1D4908604FF458711648BC
:1022C00001F056F810BD10B50446174801780078A3
:1022D000401C154A107013484454012240F22771E3
:1022E0000D4800F036FF10BD10B504460FE0207811
:1022F0000D2802D1FFF7E7FF08E020780A2802D175
:10230000FFF7E1FF02E02078FFF7DDFF641C207893
:102310000028ECD110BD000000480040000C014036
:10232000BC000020080F0020BD000020C0000020DD
:102330000948804709480047FEE7FEE7FEE7FEE759
:10234000FEE7FEE7FEE7FEE7FEE7FEE70448054995
:10235000054A064B70470000DF06000831010008FF
:102360006810002068160020681200206812002003
:1023700031490143314A1160704770B50021002393
:102380000F22C47804B32D4C246804F4E064C4F52F
:10239000E064210AC1F10403CA40447804FA03F15D
:1023A0008478144021430901254C0678A15504780E
:1023B00004F01F050124AC4005786D11AD0005F156
:1023C000E025C5F8004109E0047804F01F05012468
:1023D000AC401C4D0678761145F8264070BD1A4A6F
:1023E0000A400243154B1B1F1A60704739B1134A4C
:1023F000121D12680243114B1B1D1A6006E00F4AA2
:10240000121D126882430D4B1B1D1A607047042871
:1024100008D14FF0E021096941F004014FF0E022BA
:10242000116107E04FF0E021096921F004014FF04C
:10243000E0221161704700000000FA050CED00E099
:1024400000E400E080E100E080FFFF1F10B50446DB
:10245000FA48844208D10121401500F055FD0021C1
:10246000601500F051FD17E0F548844208D10121C4
:10247000001500F049FD0021201500F045FD0BE09E
:10248000F048844208D10121C80300F03DFD00213D
:102490004FF4004000F038FD10BD30B5024600207A
:1024A00000235068E84C20400D790C6844EA05246C
:1024B000204350609068E54C2040D1E902542C4301
:1024C0004D7944EA450420439060D06A20F47000BE
:1024D0000C7C641EE4B2234340EA0350D06230BD5A
:1024E00000210160017141718160C16001210174AD
:1024F000704721B1826842F00102826003E0826885
:1025000022F001028260704721B1826842F4807239
:10251000826003E0826822F480728260704710B5A6
:102520000023CBB21AB144681C43446002E0446803
:102530009C43446010BD816841F008018160704790
:10254000014600208A6802F008020AB1012000E07A
:1025500000207047816841F00401816070470146A6
:1025600000208A6802F004020AB1012000E0002085
:10257000704721B1826842F4A002826003E0826861
:1025800022F4A00282607047014600208A6802F4AB
:1025900080020AB1012000E00020704710B50A4611
:1025A00000210023416821F46041531E41EA433178
:1025B000416010BD21B1426842F40062426003E014
:1025C000426822F4006242607047F0B504460D464E
:1025D00000200021092D11DDE068A5F10A0606EBB7
:1025E0004607072606FA07F18843A5F10A0606EB17
:1025F000460603FA06F10843E0600CE0206905EBAB
:102600004507072606FA07F1884305EB450603FA56
:1026100006F108432061072A0FDA606B561E06EBAD
:1026200086071F2606FA07F18843561E06EB860624
:1026300005FA06F10843606322E00D2A0FDA206BE9
:10264000D61F06EB86071F2606FA07F18843D61F1A
:1026500006EB860605FA06F10843206310E0E06AFF
:10266000A2F10D0606EB86071F2606FA07F188433E
:10267000A2F10D0606EB860605FA06F10843E062B4
:10268000F0BD21B1826842F48012826003E082686A
:1026900022F48012826070470146C86C80B2704795
:1026A00066484C300068704721B1426842F480624D
:1026B000426003E0426822F480624260704721B1C8
:1026C000426842F48052426003E0426822F4805241
:1026D000426070470A460021816821F4E0411143BD
:1026E0008160704721B1826842F40042826003E059
:1026F000826822F400428260704721B1826842F40D
:102700000212826003E0826822F402128260704743
:10271000014600208A6802F400120AB1012000E09C
:1027200000207047F0B50446154600200022002620
:10273000092911DDE068A1F10A0707EB470C07271B
:1027400007FA0CF29043A1F10A0707EB470703FAD7
:1027500007F21043E0600CE0206901EB410C072711
:1027600007FA0CF2904301EB410703FA07F210431A
:102770002061A06BC0F30156EF1C06F1010CA7EB22
:102780000C0707EB870C1F2707FA0CF29043EF1C8E
:1027900006F1010CA7EB0C0707EB870701FA07F21C
:1027A0001043A063F0BD10B50A4600210023816BE1
:1027B00021F44011531E41EA0351816310BD08B555
:1027C000002300930090009B0B440093009B1A6031
:1027D00008BD08B5024600200090009201F12800D3
:1027E000009B184400900098006880B208BD0A461B
:1027F00000214168164B1940114341607047416206
:10280000826270470A460021416821F01F0111438E
:102810004160704740B109490831096841F400013D
:10282000064A0832116007E004490831096821F4BA
:102830000001024A08321160704700000024014084
:1028400000280140003C0140FFFEF0FFFDF7F1FFD2
:10285000FFFD3FFF0246002013680B400BB1012033
:1028600000E000207047CA430260704770B502461E
:102870000020002300240B125568CEB205EA06049E
:1028800015681D4015B10CB1012000E0002070BD9D
:1028900000220A12D34303607047000010B50446BB
:1028A000CC48844208D10121042000F02DFB0021F6
:1028B000042000F029FB46E0C748844208D10121EA
:1028C000082000F021FB0021082000F01DFB3AE069
:1028D000C248844208D10121102000F015FB0021DC
:1028E000102000F011FB2EE0BD48844208D10121E8
:1028F000202000F009FB0021202000F005FB22E051
:10290000B848844208D10121402000F0FDFA00219E
:10291000402000F0F9FA16E0B348844208D10121C2
:10292000802000F0F1FA0021802000F0EDFA0AE0AA
:10293000AE48844207D10121801500F0E5FA00215C
:10294000A01500F0E1FA10BD10B50121084600F015
:10295000DBFA0021012000F0D7FA10BD2DE9F0418B
:10296000024600250026002000230024002791F8BD
:1029700003C00CF00F0591F803C00CF0100CBCF173
:10298000000F03D091F802C04CEA050591F800C091
:10299000BCF1000F31D0146800202BE04FF0010C87
:1029A0000CFA00F3B1F800C00CEA03069E4220D1F5
:1029B00083004FF00F0C0CFA03F7BC4305FA03FC3D
:1029C0004CEA040491F803C0BCF1280F06D14FF083
:1029D000010C0CFA00FCC2F814C00AE091F803C024
:1029E000BCF1480F05D14FF0010C0CFA00FCC2F805
:1029F00010C0401C0828D1D31460B1F800C0BCF14D
:102A0000FF0F34DD546800202EE000F1080C4FF079
:102A1000010808FA0CF3B1F800C00CEA03069E4264
:102A200021D183004FF00F0C0CFA03F7BC4305FAD9
:102A300003FC4CEA040491F803C0BCF1280F05D153
:102A400000F1080C08FA0CF8C2F8148091F803C0E1
:102A5000BCF1480F07D100F1080C4FF0010808FA4B
:102A60000CF8C2F81080401C0828CED35460BDE892
:102A7000F0814FF6FF710180022181700421C17045
:102A800070470246002093680B400BB1012000E024
:102A9000002070470146886880B2704702460020D7
:102AA000D3680B400BB1012000E0002070470146C5
:102AB000C86880B2704701617047416170470AB1D0
:102AC000016100E041617047C16070474FF480329E
:102AD0000A4382618161826182698269704702462C
:102AE0000020434B18684FF68073184040EA0210EC
:102AF00008433F4B186070473E49C8617047F0B5C6
:102B00000A46002300240021002500F00046B6F10B
:102B1000004F02D1364EF16901E0354E7168C0F3C5
:102B2000034583B200F44016B6F5401F08D121F0EA
:102B300070612F4E766826F070662D4F7E6012E031
:102B400000F48016B6F5801F06D1032606FA05F4B8
:102B5000A14341F0706106E0460D360103FA06F626
:102B6000B14341F0706122B1460D360103FA06F619
:102B7000314300F00046B6F1004F02D11C4EF16126
:102B800001E01B4E7160F0BD30B500228B071C0FB9
:102B90000F2303FA04F2164B08338C1053F8243039
:102BA0009343134C08348D1044F8253023468C1081
:102BB00053F824308C07240F00FA04F423430C4C00
:102BC00008348D1044F8253030BD0A49DC310860E6
:102BD0007047000000080140000C01400010014057
:102BE0000014014000180140001C01400020014079
:102BF0000000014000002042DF48006840F0010072
:102C0000DD49086008464068DC490840DA49486008
:102C100008460068DA490840D74908600846006855
:102C200020F4802008600846406820F4FE004860D8
:102C30004FF41F0088607047CF49096821F4803144
:102C4000CD4A11601146096821F480211160B0F568
:102C5000803F03D0B0F5802F0ED106E0C649096849
:102C600041F48031C44A116007E0C349096841F466
:102C7000A021C14A116000E000BF00BF704710B53D
:102C800001460022002300204A11012A02D1BA4C39
:102C9000236806E0022A02D1B74C236A01E0B64C51
:102CA000636A01F01F02012494401C400CB1012012
:102CB00000E0002010BD38B5002000900024002561
:102CC00000BF3120FFF7DBFF05460098401C009055
:102CD0000098B0F5A06F01D0002DF2D03120FFF7A1
:102CE000CEFF08B1012400E00024204638BD014693
:102CF0000020A14A106820F0F80040EAC1001060EE
:102D00007047A04908607047024600209A4B5868F7
:102D100020F47C1042EA01031843974B5860704737
:102D200098490866704701460020934A506820F091
:102D300003000843506070478F48406800F00C0063
:102D40007047014600208C4A506820F0F00008438C
:102D50005060704701460020874A506820F4E060C8
:102D600008435060704701460020834A506820F4B1
:102D7000605040EAC1005060704729B17E4A527AE3
:102D800002437D4B5A7204E07B4A527A82437A4B6B
:102D90005A7270477B49D83108607047014600205D
:102DA000754A506820F44040084350607047002145
:102DB000714A20321170704A82F82010012802D026
:102DC00004280AD104E001216B4A2032117005E089
:102DD0000521694A2032117000E000BF00BF704732
:102DE0006949086070476449096A0143624A11628F
:102DF0007047654944390860704730B500210022AA
:102E0000002400235C4D6D6805F00C0121B10429FC
:102E100005D0082923D105E05C4D056022E05B4D1B
:102E200005601FE0544D6D6805F47012524D6D68D9
:102E300005F48034022505EB92421CB9544D5543EC
:102E400005600BE04C4D6D6805F400351DB1504D2B
:102E50005543056002E04D4D5543056002E04B4D82
:102E6000056000BF00BF444D6D6805F0F001090921
:102E7000484D6B5C0568DD4045603F4D6D6805F46D
:102E8000E061090A434D6B5C4568DD4085603A4D61
:102E90006D6805F46051C90A3E4D6B5C4568DD40C4
:102EA000C560354D6D6805F44041890B3A4D6B5C4A
:102EB000C568B5FBF3F5056130BD29B12E4A5269ED
:102EC00002432D4B5A6104E02B4A526982432A4B3C
:102ED0005A61704729B1284A92690243264B9A6188
:102EE00004E0254A92698243234B9A61704729B1D5
:102EF000214AD2690243204BDA6104E01E4AD269BA
:102F000082431D4BDA61704729B11B4AD2680243E4
:102F1000194BDA6004E0184AD2688243164BDA6033
:102F2000704729B1144A12690243134B1A6104E035
:102F3000114A12698243104B1A6170471249403995
:102F4000086070470F49C86470470B49C8717047E3
:102F50000948406A40F0807007494862704701465E
:102F60000020054A92680A400AB1012000E00020D2
:102F70007047014988727047001002400000FFF856
:102F8000FFFFF6FE000042428004424200127A0037
:102F900000093D00C4000020D400002010B5044604
:102FA000FB48844209D101218803FFF7ADFF0021CE
:102FB0004FF48040FFF7A8FF32E0F648844209D181
:102FC00001214804FFF7ADFF00214FF40030FFF767
:102FD000A8FF25E0F048844209D101218804FFF7C9
:102FE000A0FF00214FF48020FFF79BFF18E0EB4883
:102FF000844209D10121C804FFF793FF00214FF457
:103000000020FFF78EFF0BE0E548844208D1012144
:103010000805FFF786FF00214FF48010FFF781FFBE
:1030200010BD2DE9F04786B005460E460024A246A5
:1030300000BFA1460027B08900B100BF2F462C8AEF
:103040004CF6FF700440F08804432C82AC894EF6A5
:10305000F3100440B0883189084371890843044360
:10306000AC81AC8A4FF6FF400440B0890443AC8287
:1030700001A8FFF7C2FEC648874202D1DDF810A0C2
:1030800001E0DDF80CA0A88900F4004040B10AEB93
:10309000CA0000EB0A1031684900B0FBF1F807E004
:1030A0000AEBCA0000EB0A1031688900B0FBF1F8A6
:1030B0006420B8FBF0F004012009642101FB1089B1
:1030C000A88900F4004040B1322000EBC900B0FBF9
:1030D000F1F000F00700044308E0322000EB091093
:1030E0006421B0FBF1F000F00F0004432C8106B026
:1030F000BDE8F0874FF41651016000218180C18046
:1031000001810C21418100218181704710B5024667
:103110000020108A4FF2FF0318400B884C8823438D
:103120008C882343CC8823431843108210BD002190
:10313000018041808180C180704721B1828942F441
:103140000052828104E082894DF6FF731A40828129
:103150007047F0B50346002400260025002040F605
:103160006A17B94200D100BF1846C1F3421401F0FA
:103170001F06012707FA06F5012C01D10C3004E0E7
:10318000022C01D1103000E014301AB107682F432F
:10319000076002E00768AF430760F0BD1AB1838A99
:1031A0000B43838202E0838A8B4383827047028AC7
:1031B0004FF6F0731A400282028A0A430282704775
:1031C00082894FF2FF731A40828182890A43828189
:1031D000704721B1828942F00202828104E0828933
:1031E0004FF6FD731A4082817047028A4FF6DF73F3
:1031F0001A400282028A0A430282704721B1028A7F
:1032000042F48042028204E0028A4BF6FF731A40C5
:1032100002827047C1F308028280704701468888A5
:10322000C0F308007047818941F001018181704736
:10323000028BD2B20283028B42EA012202837047E0
:10324000028B02F47F420283028B0A43028370479F
:1032500021B1828A42F02002828204E0828A4FF603
:10326000DF731A408282704721B1828A42F01002D5
:10327000828204E0828A4FF6EF731A40828270479E
:1032800021B1828A42F00802828204E0828A4FF6EB
:10329000F7731A408282704721B1828942F400425A
:1032A000828103E08289C2F30E028281704721B1DC
:1032B000828A42F40062828204E0828A4FF2FF73C3
:1032C0001A4082827047828A4FF6FB731A408282CC
:1032D000828A0A438282704721B1828A42F00202C6
:1032E000828204E0828A4FF6FD731A408282704720
:1032F00002460020B1F5007F00D100BF13880B40CB
:103300000BB1012000E00020704701F40072B2F51B
:10331000007F00D100BFCA430280704770B50246EB
:10332000002400230025002040F66A16B14200D197
:1033300000BFC1F3421501F01F03012606FA03F393
:10334000012D02D19689334006E0022D02D1168A62
:10335000334001E0968A33400C12012606FA04F449
:103360001688344013B10CB1012000E0002070BD7C
:1033700010B50022002340F66A14A14200D100BF1C
:103380000A1201249440A3B2DC43048010BD000063
:10339000003801400044004000480040004C00401C
:1033A0000050004010B50446FE48844208D1012177
:1033B000C014FFF7A9FD0021E014FFF7A5FDC4E04C
:1033C000B4F1804F08D101210846FFF7AAFD002182
:1033D0000120FFF7A6FDB8E0F348844208D101219F
:1033E0000220FFF79EFD00210220FFF79AFDACE0CE
:1033F000EE48844208D101210420FFF792FD00210C
:103400000420FFF78EFDA0E0E948844208D10121A5
:103410000820FFF786FD00210820FFF782FD94E0D9
:10342000E448844208D101211020FFF77AFD0021F1
:103430001020FFF776FD88E0DF48844208D10121A3
:103440002020FFF76EFD00212020FFF76AFD7CE0C1
:10345000DA48844208D101214014FFF755FD0021CC
:103460006014FFF751FD70E0D548844209D1012175
:10347000C804FFF749FD00214FF40020FFF744FD89
:1034800063E0D048844209D101210805FFF73CFDE3
:1034900000214FF48010FFF737FD56E0CA48844200
:1034A00009D101214805FFF72FFD00214FF400103D
:1034B000FFF72AFD49E0C548844208D10121402098
:1034C000FFF72FFD00214020FFF72BFD3DE0C04816
:1034D000844208D101218020FFF723FD00218020B4
:1034E000FFF71FFD31E0BB48844208D10121801560
:1034F000FFF717FD0021A015FFF713FD25E0B648E3
:10350000844209D101210804FFF7FEFC00214FF499
:103510008030FFF7F9FC18E0B048844209D101215E
:103520004804FFF7F1FC00214FF40030FFF7ECFCFA
:103530000BE0AB48844208D101218804FFF7E4FC8A
:1035400000214FF48020FFF7DFFC10BD002202882D
:10355000944B98420ED0994B98420BD0B0F1804FCB
:1035600008D0914B984205D0904B984202D0904B96
:10357000984204D14FF68F731A404B881A438D4BF3
:10358000984207D08C4B984204D04FF6FF431A4024
:10359000CB881A4302808B8883850B880385814BF7
:1035A00098420BD0854B984208D08B4B984205D05F
:1035B0008A4B984202D08A4B984201D10B7A0386FB
:1035C00001238382704770B5002400220023058CFC
:1035D0004FF6FE7635400584028C8388048B4FF6C7
:1035E0008F752C40B51E2C400D882C43751E2A402B
:1035F0000D892A434D882A436A4DA8420BD06F4D4E
:10360000A84208D0744DA84205D0744DA84202D0FB
:10361000734DA84213D14FF6F7752A404D892A43BE
:103620004FF6FB752A408D882A434FF6FF652B40E5
:103630004FF6FF552B408D892B43CD892B4383803B
:103640000483CD888586028470BD70B50024002275
:103650000023058C4FF6EF7635400584028C838875
:10366000048B48F6FF752C404FF6FF452C400D8823
:103670004FF6FF7606EA05252C434FF6DF752A4004
:103680000D8906EA05152A434D8806EA05152A43E1
:10369000444DA84202D0494DA8421DD14FF67F7536
:1036A0002A404D894FF6FF7606EA05152A434FF664
:1036B000BF752A408D8806EA05152A434FF6FF3567
:1036C0002B404FF2FF752B408D8906EA85052B4371
:1036D000CD8906EA85052B4383800483CD88058741
:1036E000028470BD70B5002400220023058C4FF6C3
:1036F000FF6635400584028C8388848B4FF68F7576
:103700002C404FF6FC752C400D882C434FF6FF558E
:103710002A400D894FF6FF7606EA05252A434D8893
:1037200006EA05252A431F4DA84202D0234DA84290
:103730001DD14FF2FF752A404D894FF6FF7606EAFC
:1037400005252A434FF6FF352A408D8806EA0525D0
:103750002A434EF6FF752B404DF6FF752B408D89A1
:1037600006EA05152B43CD8906EA05152B43838010
:103770008483CD888587028470BD70B500220023C4
:103780000024058C4EF6FF7635400584038C848832
:10379000828B48F6FF752A404FF6FF452A400D8878
:1037A00020E00000002C0140000400400008004020
:1037B000000C0040001000400014004000340140A4
:1037C000004C0140005001400054014000180040EE
:1037D000001C004000200040004001400044014027
:1037E000004801404FF6FF7606EA05252A434DF6CC
:1037F000FF752B400D8906EA05352B434D8806EAF7
:1038000005352B43FA4DA84202D0FA4DA84208D103
:103810004BF6FF752C408D894FF6FF7606EA85152D
:103820002C4384808283CD88A0F84050038470BDEF
:10383000828B4FF2FF331A408283828B4FF6FF73E5
:1038400003EA01231A4382837047F0B50C461546FC
:10385000002200210026078C4EF6FF7C07EA0C07A9
:103860000784828B018C4FF6FF7707EA043640F617
:10387000FF473A404FF6FF7707EA05273A434FF6EE
:10388000FF7707EA03373A43D94FB8420ED0D94FF2
:10389000B8420BD0B0F1804F08D0D74FB84205D016
:1038A000D64FB84202D0D64FB84206D14DF6FF7778
:1038B000394046F48057394305E047F6FF57394011
:1038C00044F48057394382830184F0BD828B4FF6E4
:1038D000F3731A408283828B0A4382837047F0B568
:1038E0000C461546002200210026078C4FF6FF6C7F
:1038F00007EA0C070784828B018C4FF6FF7707EAF3
:1039000004264FF60C773A404FF6FF7707EA031785
:103910002F433A43B64FB8420ED0B64FB8420BD001
:10392000B0F1804F08D0B44FB84205D0B34FB84281
:1039300002D0B34FB84206D14FF6FF57394046F494
:103940008077394305E04FF2FF57394044F48077E0
:10395000394382830184F0BD028B4FF2FF331A405A
:103960000283028B4FF6FF7303EA01231A4302839B
:103970007047F0B50C461546002200210026078C42
:103980004FF6EF7C07EA0C070784028B018C4FF699
:10399000FF7707EA041640F6FF473A404FF6FF77F5
:1039A00007EA03373A434FF6FF7707EA05273A431A
:1039B0008F4FB8420ED08F4FB8420BD0B0F1804F2E
:1039C00008D08D4FB84205D08C4FB84202D08C4FF2
:1039D000B84206D14FF6DF77394046F01007394339
:1039E00005E04FF65F77394044F010073943028312
:1039F0000184F0BD028B4FF6F3731A400283028BF1
:103A00000A4302837047F0B50C4615460022002198
:103A1000068C4FF6FE773E400684028B018C4FF6F3
:103A20000C7632407E1C06EA03162E433243704E5B
:103A3000B0420ED06F4EB0420BD0B0F1804F08D0E4
:103A40006D4EB04205D06D4EB04202D06C4EB042C9
:103A500006D14FF6FD76314044F00106314305E0D2
:103A60004FF6F576314044F001063143028301847C
:103A7000F0BD70B505460C465D4885420ED05D48E8
:103A800085420BD0B5F1804F08D05B48854205D008
:103A90005A48854202D05A48854200D100E000BF12
:103AA000208850B92389A28861882846FFF7ABFF98
:103AB000E1882846FFF79EFF25E0208804280AD1E8
:103AC0002389A28861882846FFF753FFE1882846AA
:103AD000FFF742FF17E0208808280AD12389A2882F
:103AE00061882846FFF7FBFEE1882846FFF7EEFED7
:103AF00009E02389A28861882846FFF7A6FEE188AD
:103B00002846FFF795FE70BD2DE9F04105460C46AD
:103B100000260127608808B9022600E00026A08858
:103B2000012801D1022700E001272088A0B92389BC
:103B3000A28861882846FFF766FFE1882846FFF7DC
:103B400059FF23893A4631462846FFF712FFE1889C
:103B50002846FFF701FF13E02389A28861882846E1
:103B6000FFF707FFE1882846FFF7F6FE23893A466C
:103B700031462846FFF747FFE1882846FFF73AFF1E
:103B8000BDE8F0810A884B881A438B881A43CB889A
:103B90001A430B891A434B891A438B891A43A0F89D
:103BA000442070474FF6FF71818000210180C18061
:103BB0004180017270470021018041808180C18075
:103BC000018141818181C181704700210180418053
:103BD000012181800021C180018170470021018085
:103BE00041808180C18001814181818170470000D5
:103BF000002C014000340140000400400008004057
:103C0000000C004021B1028842F00102028004E071
:103C100002884FF6FE731A400280704731B1B0F847
:103C2000442042F40042A0F8442005E0B0F84420CB
:103C3000C2F30E02A0F8442070471AB183890B43E7
:103C4000838102E083898B4383817047818270473F
:103C500041EA0203A0F8483070471AB183890B4348
:103C6000838102E083898B438381704701894FF60A
:103C7000F8721140018170470A46002101894FF610
:103C80008F73194011430181704730B504460D46CA
:103C900029462046FFF7F0FF208940F007002081E9
:103CA00030BD2DE9F04104460D4616461F46602DF5
:103CB00006D13B46012231462046FFF75AFE05E079
:103CC0003B46012231462046FFF79DFE294620460D
:103CD000FFF7D2FF208940F007002081BDE8F08186
:103CE00030B50C4600210189C9B24FF6FF7505EACF
:103CF0000325154325432943018130BD2DE9F041BA
:103D000005460E4617469846002443463A46314635
:103D10002846FFF7E5FF2C894FF6F870044044F081
:103D200007044FF68F70044044F070042C81BDE806
:103D3000F081F0B504460D4616461F463B46324616
:103D400029462046FFF7CCFF208940F4804020819F
:103D5000F0BD0185828270470A46002101884FF636
:103D60008F731940114301807047F0B50C4615461A
:103D70001E460021002200230189028B038C4FF68E
:103D8000F877394021434FF6FC473A4040F201179B
:103D90003A434FF6DD773B404FF6FF7707EA0617C9
:103DA0002F433B43018102830384F0BD0A46002177
:103DB000018B4FF68F7319401143018370470A46F8
:103DC0000021018B48F6FF7319404FF6FF7303EA99
:103DD00002231943018370470A460021818B4FF665
:103DE0008F7319401143818370470A460021818BEC
:103DF00048F6FF7319404FF6FF7303EA0223194395
:103E00008183704721B1028842F08002028004E081
:103E100002884FF67F731A400280704721B1828872
:103E200042F00402828004E082884FF6FB731A405D
:103E30008280704721B1828842F00802828004E0CB
:103E400082884FF6F7731A408280704721B18288CA
:103E500042F00102828004E082884FF6FE731A402D
:103E6000828070470A460021018B4FF6F773194094
:103E70001143018370470A460021018B4FF2FF7303
:103E800019404FF6FF7303EA022319430183704779
:103E90000A460021818B4FF6F77319401143818345
:103EA00070470A460021818B4FF2FF7319404FF68D
:103EB000FF7303EA02231943818370470A460021F6
:103EC000018B4FF6FB7319401143018370470A467B
:103ED0000021018B4FF6FF3319404FF6FF7303EAC1
:103EE00002231943018370470A460021818B4FF654
:103EF000FB7319401143818370470A460021818B6F
:103F00004FF6FF3319404FF6FF7303EA02231943BC
:103F1000818370470A460021018B4FF67F73194059
:103F20001143018370470A460021018BC1F30E0142
:103F30004FF6FF7303EA02231943018370470A46D1
:103F40000021818B4FF67F731940114381837047A5
:103F50000A460021818BC1F30E014FF6FF7303EA7D
:103F600002231943818370470A460021018C4FF6D2
:103F7000FD7319401143018470470A460021018CEA
:103F80004FF6F77319401143018470470A46002128
:103F9000018C4FF6DF7319404FF6FF7303EA0213EB
:103FA0001943018470470A460021018C4FF67F7344
:103FB00019404FF6FF7303EA021319430184704757
:103FC0000A460021018C4FF6FF5319404FF6FF734C
:103FD00003EA02231943018470470A460021018C39
:103FE0004FF2FF7319404FF6FF7303EA02231943A0
:103FF000018470470A460021018C4DF6FF73194079
:104000004FF6FF7303EA023319430184704730B55A
:10401000002301248C40A3B2048C9C430484048CB0
:1040200002FA01F5ADB22C43048430BD30B5002353
:1040300004248C40A3B2048C9C430484048C02FAB4
:1040400001F5ADB22C43048430BD70B503460020A9
:1040500000241846183001258D40ACB21D8CA543B4
:104060001D8409B1082909D100EB6100056825F01C
:10407000700505600568154305600EE00D1FC5F36A
:104080004E052844056825F4E045056005684FF6AF
:10409000FF7606EA02263543056070BD21B102882D
:1040A00042F00202028004E002884FF6FD731A40DB
:1040B0000280704721B1028842F00402028004E0CD
:1040C00002884FF6FB731A400280704721B1828844
:1040D00042F08002828004E082884FF67F731A40AB
:1040E0008280704702884FF6F7731A400280028878
:1040F0000A430280704782884FF68F731A4082808D
:1041000082880A438280704702894FF6F8731A400A
:10411000028102890A430281704702894FF67F7348
:104120001A40028102890A430281704781847047E4
:104130008185704781867047018770478187704706
:10414000A0F84010704702884FF6FF431A400280E3
:1041500002880A43028070470146888E70470146F4
:10416000088F70470146888F70470146B1F84000BC
:1041700070470146888C70470146088D704702469B
:104180000020138A0B400BB1012000E00020704793
:10419000CA430282704730B5024600200023002443
:1041A000158A05EA0103958905EA010413B10CB1EA
:1041B000012000E0002030BDCA43028270470000A9
:1041C0002DE9F04790460D46044696084FF000074B
:1041D0006AD000BF54F8049B54F8040B014603F066
:1041E000E1F882464946084603F0DCF8514602F001
:1041F0000DFF05F10409B0F5000FB8BF2F6002DB19
:1042000002F00CF8286054F8045B54F8040B0146E3
:1042100003F0C8F882462946084603F0C3F8514621
:1042200002F0F4FE09F10405B0F5000FB8BFC9F8BB
:10423000007003DB01F0F2FFC9F8000054F8049BA2
:1042400054F8040B014603F0ADF88246494608468F
:1042500003F0A8F8514602F0D9FE05F10409B0F5C3
:10426000000FB8BF2F6002DB01F0D8FF286054F8C0
:10427000045B54F8040B014603F094F88246294687
:10428000084603F08FF8514602F0C0FE09F104051C
:10429000B0F5000FB8BFC9F8007003DB01F0BEFF36
:1042A000C9F80000761E95D118F0030608BFBDE8D6
:1042B000F08700BF54F8048B54F8040B014603F058
:1042C00071F881464146084603F06CF8494602F011
:1042D0009DFEA8462D1DB0F5000FB8BFC8F80070B0
:1042E00003DB01F09BFFC8F80000761EE2D1BDE8B9
:1042F000F08700002DE9FF4FA5B0044626988508F9
:10430000002637461895119554F8360006EB050837
:10431000029004EBC60007904068109054F83800F3
:1043200004EBC80208EB05091D922190506801902A
:1043300054F8390004EBC9021C920F9009EB050AEE
:1043400050680C9054F83A0004EBCA0117911F9082
:1043500048680D900F99029802F058FE1B901F9923
:10436000219802F053FE15900C99109802F04EFE21
:1043700019900D99019802F049FE169027984FEA7E
:10438000470B50F83B00059027980F9900EBCB00A6
:1043900040680B90029803F08BF91A901F992198AE
:1043A00003F086F90E900C99109803F081F90390B0
:1043B0000D99019803F07CF90A9015991B9802F069
:1043C00025FE44F836001699199802F01FFE0146A2
:1043D000079841600A991A9802F018FE10900E99F9
:1043E000039803F065F90F9015991B9803F060F995
:1043F0000D901699199803F05BF90C900A991A9888
:1044000003F056F90A9003990E9802F0FFFD0E9002
:10441000279850F837000890279800EBC7004068AD
:10442000099027990BEB070051F830B001EBC00061
:10443000089940680690109802F0B4FF1A90089905
:104440000F9802F0AFFF019005990D9802F0AAFFB6
:10445000169005990C9802F0A5FF039059460A980A
:1044600002F0A0FF199059460E9802F09BFF0290AF
:1044700009990F9802F096FF83460999109802F067
:1044800091FF1090DDE90B1002F08CFF15900B9955
:104490000D9802F087FF0C9006990E9802F082FFAB
:1044A0000D9006990A9802F07DFF0A9059461A98D5
:1044B00002F0ACFD1A901099019803F0F9F8019000
:1044C000DDE9151002F0A2FD83460C99039803F074
:1044D000EFF803900D99199802F098FD19900A9938
:1044E000029803F0E5F844F838B01D9A0399761C59
:1044F00051601A9944F839101C9A01995160199920
:1045000044F83A1017994860289807441198401EBB
:1045100011907FF4F9AE28984FF6FF7101EA800000
:10452000289018982390042840F2248117950020A1
:10453000AD0812901190681E1C90129B279A129839
:10454000129952F833200892279A400002EBC302D6
:10455000014452680992279A52F830200592279A0E
:1045600002EBC00040680B9052F83100079002EB5C
:10457000C1002899406806905818119E129077192A
:1045800054F83600029004EBC60024904068109066
:1045900054F8370004EBC702CDE9202007EB0508EB
:1045A0005068019054F8380004EBC80B0F9008EBEA
:1045B0000509DBF804000C9054F8390004EBC90A33
:1045C0001F90DAF804000D900F99029803F070F82C
:1045D0001A901F99219803F06BF80E900C9910987F
:1045E00003F066F803900D99019803F061F80A90C2
:1045F0000F99029802F00AFD1B901F99219802F072
:1046000005FD15900C99109802F000FD19900D9978
:10461000019802F0FBFC16900A991A9802F0F6FC39
:1046200010900E99039803F043F80F9015991B987A
:1046300003F03EF80D901699199803F039F80C9094
:104640000A991A9803F034F80A9003990E9802F028
:10465000DDFC0E9015991B9802F0D8FC44F836004A
:104660001699199802F0D2FC0146249841600899E5
:10467000109802F097FE1A9008990F9802F092FE97
:10468000019005990D9802F08DFE169005990C98F1
:1046900002F088FE039007990A9802F083FE1990B1
:1046A00007990E9802F07EFE029009990F9802F089
:1046B00079FE0F900999109802F074FE1090DDE9D0
:1046C0000B1002F06FFE15900B990D9802F06AFE28
:1046D0000C9006990E9802F065FE0D9006990A98C6
:1046E00002F060FE0A900F991A9802F08FFC1A905F
:1046F0001099019802F0DCFF0190DDE9151002F03D
:1047000085FC16900C99039802F0D2FF03900D9946
:10471000199802F07BFC19900A99029802F0C8FFE0
:10472000169944F83710209A039951601A9944F861
:1047300038100199CBF80410199944F83910CAF8C7
:1047400004001798064426988642FFF418AF119883
:104750001C99401C119088427FF6EFAE28984FF6C6
:10476000FF7101EA80002890239880082390042894
:104770003FF6DCAEDDF86050D4E905B0D4E900685E
:10478000D4E90279D4F810A01F90E0690D90514649
:10479000304602F03BFC1B905146304602F088FF49
:1047A0001A905946404602F031FC1990594640464D
:1047B00002F07EFF039038461F9902F027FC8046E6
:1047C00048460D9902F022FC064638461F9902F031
:1047D0006FFF0E9048460D9902F06AFF0A9041461D
:1047E0001B9802F013FC05903146199802F00EFC5C
:1047F000834641461B9802F05BFF8246314619987A
:1048000002F056FF81460A991A9802F0FFFB804693
:104810000E99039802F04CFF07460A991A9802F085
:1048200047FF064603990E9802F0F0FB0599C4E98C
:104830000660E4E8081B6D1E44E9048744E906A904
:104840009AD129B0BDE8F08F2DE9FF4FA5B00446FD
:1048500026988508002637461895129554F8360094
:1048600006EB0508059008EB050904EBC600099066
:1048700040681E9054F8390004EBC90216920B9060
:104880005068079054F8380004EBC8021F921D903E
:1048900009EB050A5068049054F83A0004EBCA0189
:1048A00017911190486808900B99059802F0AEFB9B
:1048B0001B9011991D9802F0A9FB1A9007991E9858
:1048C00002F0A4FB19900899049802F09FFB0E9047
:1048D00027984FEA470B50F83B000D90279800EBC4
:1048E000CB00406810900B99059802F0E1FE1C90F7
:1048F00011991D9802F0DCFE029007991E9802F0B3
:10490000D7FE03900899049802F0D2FE0C90DDE9DE
:104910001A1002F07BFB44F836000E99199802F049
:1049200075FB0146099841600C991C9802F0C0FE85
:104930000590DDE9021002F069FB0890DDE91A102C
:1049400002F0B6FE07900E99199802F0B1FE119090
:104950000C991C9802F05AFB0B90DDE9021002F052
:10496000A7FE0C90279850F837000A90279800EB84
:10497000C7004068099027990BEB070051F830B049
:1049800001EBC00040680F900A99059802F00AFDFB
:104990001A900A99089802F005FD04900D9907985D
:1049A00002F000FD19900D99119802F0FBFC0390A4
:1049B00059460B9802F0F6FC1B9059460C9802F0F1
:1049C000F1FC0290DDE9080102F0ECFC8346099954
:1049D000059802F0E7FC0E90DDE9101002F0E2FC11
:1049E00005901099079802F0DDFC07900F990C983C
:1049F00002F0D8FC0C900F990B9802F0D3FC0B90AE
:104A000059461A9802F054FE1A900E99049802F032
:104A1000FDFA04900599199802F04AFE8346079919
:104A2000039802F0F3FA03900C991B9802F040FEF1
:104A30001B900B99029802F0E9FA44F838B01F9ADB
:104A40000399761C51601A9944F83910169A049902
:104A500051601B9944F83A10179948602898074408
:104A60001298401E12907FF4F9AE28984FF6FF710D
:104A700001EA8000289018982390042840F22481AD
:104A800000201695AD0813901290681E1790139B86
:104A9000279A1398139952F833200A92279A4000C4
:104AA00002EBC302014452680992279A52F830205F
:104AB0000D92279A129E02EBC0004068109052F8A7
:104AC0003100009002EBC10040680F9028995818FF
:104AD0001390771954F83600059004EBC600249023
:104AE00040681E9007EB050854F8370004EBC70B2D
:104AF0001D90DBF80400049054F8380004EBC80261
:104B00000B90209208EB05095068079054F8390083
:104B100004EBC90A1190DAF8040008900B99059883
:104B200002F0C6FD1C9011991D9802F0C1FD029083
:104B300007991E9802F0BCFD03900899049802F0B2
:104B4000B7FD0C900B99059802F060FA1B90119933
:104B50001D9802F05BFA1A9007991E9802F056FA17
:104B600019900899049802F051FA0E900C991C982B
:104B700002F09EFD0590DDE9021002F047FA089070
:104B8000DDE91A1002F094FD07900E99199802F0D1
:104B90008FFD11900C991C9802F038FA0B90DDE90A
:104BA000021002F085FD0C90DDE91A1002F02EFAD9
:104BB00044F836000E99199802F028FA0146249814
:104BC00041600A99059802F0EDFB1A900A9908983D
:104BD00002F0E8FB04900D99079802F0E3FB1990AE
:104BE0000D99119802F0DEFB039000990B9802F0EA
:104BF000D9FB1B9000990C9802F0D4FB0290DDE9E0
:104C0000080102F0CFFB08900999059802F0CAFB51
:104C10000E90DDE9101002F0C5FB05901099079881
:104C200002F0C0FB07900F990C9802F0BBFB0C90B0
:104C30000F990B9802F0B6FB0B9008991A9802F0A6
:104C400037FD1A900E99049802F0E0F90490059946
:104C5000199802F02DFD19900799039802F0D6F9E2
:104C600003900C991B9802F023FD1B900B9902985E
:104C700002F0CCF9199944F837100399CBF80410D5
:104C80001A9944F83810209A049951601B9944F8F5
:104C90003910CAF804001698064426988642FFF494
:104CA00018AF1298401C1290179988427FF6EFAE09
:104CB00028984FF6FF7101EA800028902398800819
:104CC000239004283FF6DCAEDDF86050D4E905B04F
:104CD000D4E90276D4E90089D4F810A01190E069F3
:104CE00008905146404602F091F91B9051464046CB
:104CF00002F0DEFC1C905946484602F087F91990F4
:104D00005946484602F0D4FC03903846119902F007
:104D10007DF981463046089902F078F98046384698
:104D2000119902F0C5FC07463046089902F0C0FC14
:104D3000824649461B9802F069F983464146199814
:104D400002F064F9049049461B9802F0B1FC8146D8
:104D50004146199802F0ACFC064651461C9802F0F8
:104D6000A7FC09903946039802F050F9019051468A
:104D70001C9802F04BF906903946039802F098FC13
:104D800003905846329902F00DFB07463299049879
:104D900002F008FB80464846329902F003FB814648
:104DA0003046329902F0FEFA82463299099802F0B2
:104DB000F9FA83463299019802F0F4FA0B9032998D
:104DC000069802F0EFFA06463299039802F0EAFAE2
:104DD00084E8800F0B996161C4E9066020346D1E80
:104DE0007FF474AF29B0BDE8F08F38B504460D46A6
:104DF00080782188A389626801280FD02846FFF7B0
:104E000079FAE078012818BF38BDE2892188A368C3
:104E100001B02846BDE8304000F05AB82069009043
:104E20002846FFF711FDECE710B40180224C4460E6
:104E300082704FF0000CC370B1F5807F20D004DC8D
:104E400010292ED0402906D122E0B1F5806F0FD075
:104E5000B1F5805F04D04FF0FF3C10BC6046704756
:104E600001218181C181154981604FF0665116E0B1
:104E700004218181C181124981604FF06A510EE0A5
:104E800010218181C1810F4981604FF06E5106E090
:104E900040218181C1810C4981604FF072510161D3
:104EA000DBE74FF480718181C181084981604FF057
:104EB00076510161D1E70000A4A30008A49B00087B
:104EC000AA9B0008C29B0008229C0008A29D000823
:104ED0002DE9F0074D0801244FF0000C04EB5106BA
:104EE0006146A5F102082CE061452AD250F8314014
:104EF00050F83C7040F8317040F83C4000EBC10481
:104F000000EBCC07D4F80490D7F804A0C4F804A0B0
:104F1000C7F804908F190CEB060450F8379050F83E
:104F200034A040F837A040F8349000EBC70700EBFE
:104F3000C404D7F80490D4F804A0C7F804A0C4F8B7
:104F4000049000EBC104AC44A76850F83C90C4F84E
:104F5000089040F83C7000EBCC0CE768DCF804905B
:104F6000C4F80C90CCF80470891CB3F800C089B266
:104F700003EB42034145B7D9BDE8F00770472DE97F
:104F8000F00701254C0805EB51064FF0000C651E9B
:104F90006146002D88BFA8462ED8BDE8F0077047AF
:104FA000614529D250F8315050F83C7040F83170CA
:104FB00040F83C5000EBC10700EBCC097D68D9F804
:104FC00004A0C7F804A0C9F804508D190CEB06071B
:104FD00050F8359050F837A040F835A040F8379099
:104FE00000EBC50500EBC707D5F80490D7F804A07F
:104FF000C5F804A0C7F8049000EBC105A444AF684D
:1050000050F83C90C5F8089040F83C7000EBCC0C90
:10501000EF68DCF80490C5F80C90CCF80470B3F895
:1050200000C0891C03EB42034145B9D3BDE8F0073A
:1050300070472DE9F00F01244D084FF0000C04EBF0
:105040005107012D9CBFBDE8F00F7047014600EBF2
:10505000870400264FEA550815E000BFBCEB460F59
:1050600011D950F82CA0D1F80090C1F800A040F858
:105070002C900CEB0709D4F800A050F829B0C4F824
:1050800000B040F829A0AC44D1F8049050F82CA00E
:10509000C1F804A040F82C90B3F800C008310834DF
:1050A000761C03EB4203B8F10108D7D1BDE8F00F3D
:1050B000704770470FB4044910B503AA029800F076
:1050C000CDF810BC5DF814FBB40000202DE9F041D0
:1050D0000E460446002020622046E168884730B32F
:1050E000252805D0D4E901219047206A401CF2E729
:1050F000E168204600278847050018D0A5F1410047
:10510000192802D820354FF4006732462946204638
:105110002760FBF747F840B1012804D0F61D26F0C0
:1051200007060836D8E7361DD6E72846DAE7206AAC
:10513000BDE8F08170B504460D4621461068AFF316
:1051400000802188090502D50F4A7A4402E00E4A00
:105150007A440E32002104F1240305E000F00F062A
:105160000009965D5E54491C0028F7D12078002381
:10517000000704D5702D02D009B102231132204658
:10518000BDE8704000F011B856D20000704770477B
:105190007047704710B500F073F8006810BD10B587
:1051A000044600F06DF8046010BD2DE9F0470D468F
:1051B00099469246044600F124080168880604D501
:1051C000E06921F01001216000E00120A84201DD2A
:1051D000471B00E00027A1697A1902EB0900081AB1
:1051E000A0612078C00602D42046AFF300800026DC
:1051F00008E0D4E901211AF806009047206A401C13
:10520000761C20624E45F4DB2078C0060AD5204685
:10521000AFF3008006E0D4E9012130209047206AF6
:10522000401C2062381EA7F10107F4DC07E0D4E936
:10523000012118F805009047206A401C2062281EB2
:10524000A5F10105F3DC2046AFF3008020780006CD
:1052500002D50220BDE8F0870120FBE7074B70B5BF
:105260000D467B4400F015F80446284600F024F86B
:1052700010B14FF0FF3070BD204670BD3DBDFFFF47
:10528000004870470810002001694A1C0261087834
:10529000704700B58FB0CDE9013100210591054976
:1052A0007944CDE9031011466846FFF70FFF0FB0B0
:1052B00000BD0000E5FFFFFF007B00F080007047AD
:1052C00000487047081000207546FFF7F9FFAE460A
:1052D00005006946534620F00700854618B020B502
:1052E000FDF734F8BDE820404FF000064FF000070E
:1052F0004FF000084FF0000B21F00701AC46ACE87E
:10530000C009ACE8C009ACE8C009ACE8C0098D46EA
:1053100070470446AFF300802046FAF755FF490076
:1053200050EAC12018BF04204A0D18BF40F0010008
:1053300040F2FF72B2EB515F08BF40F0020001285B
:1053400008BF052070472DE9F0414F1E00EBC70153
:105350000446D1E9000115461E4637F006020DD07D
:105360002A46334601F016FB7F1E04EBC703D3E940
:10537000002300F09BFF37F00602F1D1022F25D069
:10538000042F13D0062F18BFBDE8F0812A463346FC
:1053900001F000FBD4E90A2300F088FF2A463346D7
:1053A00001F0F8FAD4E9082300F080FF2A463346DA
:1053B00001F0F0FAD4E9062300F078FF2A463346DC
:1053C00001F0E8FAD4E9042300F070FF2A463346DE
:1053D00001F0E0FAD4E9022300F068FF2A463346E0
:1053E00001F0D8FAD4E90023BDE8F04100F05EBF37
:1053F000002213461046014901F0B0B80000F03F0A
:10540000012202F0FCB900F051BF00221346104601
:10541000114601F0A3B840F2013200204FF0E04104
:1054200002F0EDB9024A0020110702F0E8B90000CD
:1054300001FDFFFF2DE9F04D894BCE0F21F0004714
:1054400084B005460C469F4230D38648874211D32C
:10545000C7F31300284305D004B02846BDE8F04D3B
:10546000FFF7CEBF002E1ABF00200146284604B029
:10547000BDE8F08D7C4A284601F08AFB07D2022065
:10548000FFF78DFE04B0BDE8F04DFFF7C4BF774ACB
:10549000774B2846214601F041FA07D20220FFF758
:1054A0007EFE04B0BDE8F04DFFF7BCBF7148B842C6
:1054B00048D27148874215D27048784400EBC60044
:1054C0002146D0E90023284601F08AFCCDE90001FD
:1054D0006B48784400EBC600D0E900ABC6F1010090
:1054E000861B26E0674A684B2846214601F052FA9F
:1054F000664A7A4402EBC603D3E9002300F0D6FEE5
:1055000001F084F9064601F0DEF907468846604A54
:10551000604B01F03FFA2A46234601F06FFBCDE9CC
:1055200000015D4A5D4B3846414601F033FA824640
:105530008B46DDE9000152465B4601F051FC054611
:105540000C4618E05648874214D2564A564B284615
:10555000214600F0ABFE554E0022334601F018FB09
:1055600008D204B0334628462146BDE8F04D00225B
:1055700000F09CBE00262A4623461046194601F03C
:1055800009FA804602464A480F460B4605217844F0
:10559000FFF7D9FE42463B4601F0FCF92A46234676
:1055A00001F02CFB07468846E6B302460B46002076
:1055B0004FF0804101F014FCCDE902013A46434628
:1055C0002846214601F0E6F9DDE9022300F0C6FF96
:1055D00052465B4601F012FBDDE9002301F000FCBE
:1055E0000022324B01F00AFB6FF47F729642A2BF99
:1055F00001EB065104B0BDE8F08D4FF07A5202EB9A
:10560000065211442B4A02F0FAF804460D46FFF701
:1056100086FE042808BFFFF705FF204604B0294690
:10562000BDE8F08DFFE700224FF0804301F0D8FB8A
:1056300082460E463A4643462846214601F0AAF9DC
:105640005246334600F08AFF2A46234601F0C8FB43
:1056500004B00022BDE8F04D144B01F0CFBA0000B9
:10566000422E86400000F07FEF39FAFE51302DD5F2
:10567000104987C0422ED63FB2A2F03F22CF000091
:105680001ACF0000FE822B654715F73FDACE0000E7
:105690000000E0FE422EE63F763C7935EF39EA3DE8
:1056A0000000303E9C7500883CE4377E0000F03FEF
:1056B0006ECE000018FCFFFF2DE9F041C1F30A5245
:1056C000A2F2FF362F4A304B0D460446142E2FDA35
:1056D000002E12DA00F0EAFD0022134601F058FA1B
:1056E0004CD2002DA4BF0024254647DA25F0004007
:1056F000204318BF254D41D018E0DFF894C02CFAA4
:1057000006F705EA070C5CEA040C08BFBDE8F08167
:1057100000F0CCFD0022134601F03AFA2ED2002D03
:1057200003DA4FF48010F0400544BD43002425E027
:10573000332EC8BFBDE8F081A6F1140C4FF0FF373F
:1057400027FA0CF73C4208BFBDE8F08101F056FA99
:105750000022134601F01CFA10D2002D0DDA142E8F
:1057600008BF6D1C09D0C6F13400012101FA00F018
:105770002044A04238BF6D1C0446BC432946204645
:10578000BDE8F0819C7500883CE4377E0000F0BFE6
:10579000FFFF0F002DE9F04114461D4606460F4657
:1057A00000F065FE00F07040B0F1005F0FD0201CEB
:1057B00018BF0120284320F00040C0F17F6000F1B5
:1057C000E040C00F02BF20462946BDE8F0813046C8
:1057D0003946BDE8F0812DE9F04114461D460646E4
:1057E0000F4600F044FE00F07040B0F1004F0FD0C3
:1057F000201C18BF0120284320F00040C0F17F602A
:1058000000F1E040C00F02BF20462946BDE8F0810C
:1058100030463946BDE8F0812DE9F04D16460F4679
:1058200094B01C4621F0004123F00042002814BF30
:105830004FF0010C4FF0000C0CEB470CFE4B0CEB47
:1058400003054FEA630C65452BD3350018BF0125CE
:1058500005EB44051D44F94B9D4222D3F84B52EA17
:10586000060C02D09F4205D148B914B00020194659
:10587000BDE8F08D002808BF4FF0000C01D04FF0BC
:10588000010C0CEB470313F5001F0AD8002E14BFC0
:105890004FF0010C4FF0000C0CEB440313F5001F0C
:1058A00007D914B0324623463946BDE8F04DFFF71C
:1058B000AABDDFF890834FF0000A002FB8BF424521
:1058C00023DAE14B9A42A8BF4FF0020A1DDADC4B03
:1058D00093421ADCDD4B03EB2253142B08DDC3F19A
:1058E000340C26FA0CF303FA0CFCB4450DD108E095
:1058F0005EB9C3F1140C22FA0CF303FA0CFC9445C4
:1059000003D103F00103C3F1020A51EA00031BD1E2
:10591000002C19DA002F18BFBAF1020F02D0BAF129
:10592000010F07D00220FFF73AFC14B0BDE8F04D9C
:10593000FFF75EBD0220FFF732FCFFF759FD14B000
:1059400081F00041BDE8F08D330070D1424525D192
:1059500007F1804212F5801201BF00280020B849EB
:1059600014B008BFBDE8F08DB548884207DC002CB4
:10597000A1BF1846214614B0BDE8F08D07E0002C09
:10598000BFBF184684F0004114B0BDE8F08DB049A7
:105990007944D1E9000114B0BDE8F08DDFF8A0C270
:1059A00062452AD1002C24DA39B1414517D10028AB
:1059B00004BF002002461CD106E040B10220FFF7E0
:1059C000EEFBFFF728FD0A46394600F0D7BA9D4A9C
:1059D000394614B0002062F31E01BDE8F08D08DAEC
:1059E00014B03B46BDE8F04D02460020614600F091
:1059F000B5BD14B03946BDE8F08D414517DAB4F1B4
:105A0000804F0CD0A4F10053B3F1FF530FD13B1ED4
:105A10000DDB14B01946BDE8F04D00F0D9BB3B4694
:105A200014B00246BDE8F04D194600F0B3BF0500C2
:105A300027F000433AD1E1B1414537D1002F06DDCF
:105A4000002CA1BF0020414614B0BDE8F08D002F0E
:105A500001DD002C1FDB002F16DA002C14DBBAF15D
:105A6000010F4FF0000014BF76497A4914B0BDE829
:105A7000F08DBAF1020F18BF002F0CD0BAF1010F50
:105A800009D1002F07DA0BE0002FB8BF002C0DDA88
:105A9000BAF1010F04D0002014B00146BDE8F08D2A
:105AA00014B000204FF00041BDE8F08D4FF0010828
:105AB00008EBE77CCDF814C05CEA0A0C0DD0DFF8E7
:105AC00098C162457EDDDFF894C1654B624512DD09
:105AD0008B420ADB002C18DB23E00120FFF75FFB81
